:020000040000fa
:100000004cd61958fbe2f58f67f43ff90dc47dd04b
:10001000cb15796b02dbfed836d0150dd0a00deed6
:10002000d3efba84a9c0b0195c107a23e2acf829e6
:1000300048917814ea662d8d08ce176153ae870675
:100040005aacc3c3e76f8115a8783f42d18da94d43
:1000500076188da9d7f41868e2815fc49c016333d8
:10006000358e1b76fc372d467f136e977344418e79
:100070004b5372a7915539a65cba5e4f86c0c30137
:100080007aeaccb3b6f462e5591a8b9364c1d231e3
:1000900080c3033d67f1edf94e9c2b4def252cef0e
:1000a00006ea06436414ae9ef31dbddc460ad66f15
:1000b00093bb424e2ac07687d7a07e41bb808a7010
:1000c000788c1aa4da9d84904dfdd14fbe382974e6
:1000d000c46252733051f8eb5b92b6ddd1332aeb38
:1000e000339f800770273c50acf136f874760b6371
:1000f0001ab47df654c57c327f93d40c1bb5bebbbd
:100100005ecbd35301dc11e79884ff1b16061f500a
:100110005e802fd9f4d3f1de2e177ee989915e2f10
:10012000e688d120ef7c21cfde93e52e553e70444a
:100130001d69f9cdf0c326e697e6fec50d66828af5
:1001400079235cbd1d5d71f98e5143dce485683c0b
:10015000aae7903ab175d2b42b1d42249ee60a0458
:100160008cbf7c2af264e7cafc4518037f58d72a63
:100170001845cc3d1e5a8d26a22cdbc039d937c775
:10018000554f5b1e5b0f4f19c24809b7e049f3f3a7
:1001900043a2aaa5a777d58ef6d7fe85da19aff3c5
:1001a000d09e4903c86e5733bb895e3dcafc536f6e
:1001b000c6f24bf53d670bb16536879386957e9aff
:1001c000bd49b7f42d2394d7088b0110022af46b94
:1001d00005fcf365565774cb71b7f13f435011c519
:1001e0009ec13cc601677b3a0e2384df50a035aa2e
:1001f000245b0ce1ed0a3989e21960121d613a6d48
:10020000bc4c93fc41056a04757c188d813edbdf94
:100210000c8022087ed5680dc27199c822f32f8206
:1002200022029cd06d5e9e502915972f66fb0fb45d
:100230006cace62d0da1f2ee5e27055165448be70f
:10024000a0d2583188663baf5bbf7c11d4dd5bc761
:10025000b4f82c591fedac354bf8b2d4fda74d7353
:10026000c87ceebf1ba348267fa2e6b1a503b2a7b8
:100270001a4eed47becb4f605df352a70584d5f112
:10028000f397a9d13133b12b4e369ac3b59d66dbb6
:10029000986f466778e07963b07d3b579d55eb21b9
:1002a0003b8bf86f5bc444acc54cfe2be5f030dbf8
:1002b000ebed77db5f67aaa2a24e66a6e7a8b8b50a
:1002c00081956d58ad9bb50823051f051a552c1552
:1002d0009430e67d092d49f8d67471880a21cc54f2
:1002e00068c7c0fdbe909b13edd7ada03e39dbe9da
:1002f000da731bd790939db3314d9f253177179ab1
:100300005607ca84aa0e7116ec8dfb7f3c1c21adea
:10031000c5c5c2289291d595df8fd3da8a75f116bb
:10032000790d8bc5121697cc2d450157069345aa1a
:10033000230bad6630af01d44e4299374af8134bc8
:10034000be672550193a4f67ff715b139247f51c42
:1003500085fad036120c181a30c21e02a7f59cafcf
:10036000db77df6568a3c189f7d847d2d7f63f3678
:10037000411f45f56059f1857cbf3433dc710eaf08
:10038000457225fa290ef94aee95abe7d36f9a1b11
:1003900070d946b2c9dc4aa86d3e50f528884fa8ee
:1003a000396083b90ec8e438ff150ed88798dce5ac
:1003b000f05c36327f6fc58980988cabce69a9ef2f
:1003c000b520aefe4bb858528d1b9b5ff86a42a217
:1003d00063ad99ea3881e7a17878a6e81457cbcacb
:1003e0007f627bdd96530a0c3abd236c2ff06d5271
:1003f0002daa18082d1218df5cde007546a7c774f9
:100400001cade71a2da7964eef651821384e5fea0e
:100410007801806b1db8a7a477209f4fb3c6131d2a
:10042000d9590e2fcf537b74dad393d426b6835485
:100430003235c0a64a9ec3c856e62da7ae3289e71c
:10044000c594354ac08a1d4f6a184f110c72a36dae
:100450000c9fef0079818493cc2bf7e08e7e67eac6
:10046000b35fc14bc815c223549aad9504dff105a3
:100470007c694477f5b3e1c5f041f094ad5051315a
:100480003a8f3eca335097a79014af532a6effe1bc
:10049000bb921cb88b1ab88e1bcbae8e6b644bba5a
:1004a000b8ce5a0fd12aa9085b94fd72a0a3c7bc8d
:1004b000c6eef9288e30ca96eec269d12a89c07973
:1004c0004a9ae917f628ede5357de44d8b17a542ec
:1004d00060257eded303bdf74973008f53a07f569e
:1004e000d442df967a603954e485537213775913f6
:1004f0000db175a6b5341a3d547df4334ea2b92a18
:10050000feee5aefb97f49db6eb7dea3668507c6fc
:1005100016e2caff11fa4d6d79d56b588c9805c556
:100520003396963d93c5bc78216fbcd8b41438e39c
:100530008bdc8e1d4a1da8fb66c32fcf80a25deb0e
:10054000a307f74e6c06159a8d62c93b330ed7e8a8
:100550003b95f6e845fd61d10ee4ad9da0f31f5338
:1005600040e303a22ba9bb258695852a1b70354540
:10057000bcda5afc6c8a904fa728f8fa68d20ea60b
:10058000c49f66703eaafa7126631438aa49065fb2
:10059000694837a7ae4b3345acd3c45356984f8602
:1005a000a885eea1939a014bc87a3d2c20c0629099
:1005b0005d552eed7c5a2bfadc7e6c48edb66e83d1
:1005c0002db28ed39f9be3f20edc6bffc30ec625cc
:1005d0007c460487cc643d293815eeaeb5ae57276e
:1005e00056175b575966981bdbe0b0e2da7e125e65
:1005f0006938a1df18ab12fe08d9ea8e38165eec16
:10060000eb7a93333f47f9ee5730be36b4718971b8
:100610008f1a12155e06381dd55da724059a38403d
:10062000767391204f1dc807f0caed92a25ed5885f
:100630001cae87fd21dd209c6e8a0fe1b0f900879a
:100640004871db8d0d5da675570139c1f7cb00be32
:10065000008e561e652f1f03e69caf69cf05341927
:1006600074b4169a820e1cbe7e7b42c10e577d2644
:10067000f122f7b5b68e6e539324b995fda5b64019
:10068000d1530c1d3acc94d89f334ac543b21ec3f4
:1006900069ad07b0211f2bfc10070372d9d4cc3be6
:1006a000fb35aea144c75e3137763b33f7a11d91d0
:1006b000a53f47b3389c56e53a7c064006a1223e4a
:1006c00051190d6135c2aca905e7a0a68ffd147aba
:1006d000a6c19b151054d567360fe0742c2fc46f3c
:1006e000f7916051241696920f7da8ec75b30561c1
:1006f00032ef0ce34527725268a253b6f4b425e9f1
:10070000d4000216aeaf18b69c82270914c3541b3e
:10071000d357c6ddf38dd8e77b68c5e30e7c1bbce1
:1007200094a17108f20b10513a939633de42c871ce
:10073000d65d1b74be8e9bdb5fea3f0c2ee5e1ecc1
:10074000a682513794404212b8a50ed449598f1f42
:100750004c3880d2cac82e5a45046e740962146e91
:100760003d826863bdf5551e2bfc528acc4638d8b5
:100770000bf38cd1c26eeb02a3e6a6965c7ab82d81
:100780005259a1011865d40dec33c32ae558b83f7e
:10079000ac6ffd02d4450fe33516db1de4c8320a09
:1007a0009f8e0a3dd5612eeb97386ab815f566ee37
:1007b0008d5db3a8b2a7bc86f96aa7e965fb4cd8e2
:1007c000a480d6f3a94db7380c4ff270e1960073b0
:1007d000d046b3ba9182f7e231104811a6d5345c05
:1007e000a55f5cb4cb20a5e9700dacc1d2c7a44e07
:1007f000598526e42c58a86864889fdb722d7e53a7
:10080000a93217c7f76615642c5c8b4c7429d8f491
:10081000d24a5886c13e9ef85ca633c597ee1f6b40
:100820007bd1a5256d3f0487ec7b26e95a7184cfe7
:10083000a997bbb312df88e928932d80ea18704886
:10084000abe9c97bf15e58a1a0fcbaa21769f33be2
:100850000f44e2336478fe061aca5aef40bc328075
:100860008cfd6a2ccb0dd5777dc625b645ecd78a95
:10087000f9fc888281db778bc81d2d2c7502859f42
:100880003761934cc8262940fb13ed9780eb430159
:10089000223e87ceb86e512b0db0bb826724ef2469
:1008a000854072a63619e2a9d87138ec6a6cafd9c6
:1008b000065fe2fcdb2acd0d08fabe74fa725c8298
:1008c000189559b6eaeb73d212c3d28fa888f83fb5
:1008d000e885bca43f9f11ca1bc994b5154e1a1fc9
:1008e0005132c1b03d33344eef3e2b90e26a5e533d
:1008f000cbac5f10bfed2570ed3c3d2da230da583a
:100900005abe4277091c5f27f76e5730c655862cb2
:100910007ba33741b8caf88267c861fb90a1b27b5c
:100920001cb19da6af6714d8f8310ee6049c76d2b0
:10093000840dd5ea0c8059f6b935496dd4401eccea
:100940004858b48a1368575100b8aa5d52a99d420d
:100950003861ee7222eefe3555a1e20962c2fb80db
:1009600051d58d269d070ef6658b2d7468f8c96ede
:10097000adec5af6e384821ef17abf8738ec8cc462
:100980006f1d532d39be04a0be84383c041b2f3b81
:10099000bbcc1744bd495f03878514d4529976b701
:1009a0009dfa560b569fea9aead016fee6b6688084
:1009b00000f544e1a2d6f9ab58dbbc10b5b8c46c65
:1009c0009b0907dde94d51a407f3b032d4826f0dc6
:1009d000df2e2704095a944ee3e83490674ce4e98b
:1009e000ebbbfd746affb2f47bc29788954ca4a25e
:1009f0007b122898eb965a9bf26d9fdd746ca82aa7
:100a0000d655f456d5826730ee69fee3f8f5cdf39e
:100a1000bf11d33ec6e056b58c7dc1b3ea43471e35
:100a200067f1c9bca936b0754c65bd59ce7211aa23
:100a3000596edb489d227c3102810403dc0f5aa8e9
:100a40006d7d8094eb0eb052c7895134eacafc64c4
:100a5000b94113bff4daa019e63677f26124e19fb9
:100a60007cb9408022926ecdd1fad7f4271c7eb398
:100a70001574745dd61a7bec0eabcbd794e73dcee4
:100a8000eb3c52d55bded65d2534164a6198ed1bf2
:100a900066c81b93d287ab9c9446564095d534f5d7
:100aa000d76d269e26a2b6eebd05731e7984ff156e
:100ab0006bcf4985f85bb08fd7be10ed867cf1c651
:100ac0001d8b4f969522c2e1dc8ffb895436d20fe5
:100ad000a4f06209e064f09e7a2099d38e7e02e849
:100ae00063a782314335900905495ddcdc1ee56969
:100af0005768efaca204b51863cb321ad89359f7f4
:100b00000ea79c934a489dae00fcee97fcbb1d7956
:100b10008e469dacde312ac0bc76c11f93854c82c7
:100b20004b439a964a5a488ddbc7a472a6a2c28745
:100b3000166c3cfeb47563caf427ce73f234950b81
:100b40000a099fc968ffd3d5e51d1d58d07d80d106
:100b50008092c149cbed53e2be3b89da2c91530b15
:100b6000fc5bf36b4b5f672cb3c4966671076789b8
:100b7000214446e94d4cd4250f63c24c7ba509ebbb
:100b80009b6dff741f360da81ed6f5f08713ecd2af
:100b900014e105ede7d7a32523a2f0f720899b0cec
:100ba0002249528c95d3b5d642c1c07c1384e7c686
:100bb000369c6219cd6862e977522c3b5d6d55bf5a
:100bc00090cda012df1b34b6804824c51a5393730e
:100bd000297ddfe4b36c95ebcf1e33ac7894e44d04
:100be000a8a9bf16b7853fbd7b82f0b9a58e92d963
:100bf000515e267bd4e7a61830076914be545bf01b
:100c0000f264a95f591d72d11dd7987bc056e7eddc
:100c1000d8f003bced6de3d3e661d16e7c1831d81a
:100c2000b9567e6683844c50920833617edefb9910
:100c3000abb5683c42287cf27ed517ec065f3e27b8
:100c40000eac80587aec300a4a267ef7f2709ab9d8
:100c50007d05694196d786bfcb5f87f1b2bbc2f5f0
:100c6000c3691617071e6742fa98d8fa3669f31f48
:100c7000c30c3ec836cbfbf8e44f1417dcd55f4df0
:100c80006f61ca3a75751ab09b17455e663a9c90bb
:100c9000b5c84480eeeab8cf2349532ae3661a2d3b
:100ca0006f3e4b0893e2598168b36d48a4678dc5c8
:100cb000530dfdcc10ad7eeb27477d2b2a3d5f8980
:100cc000e27d6c81b7e71855e3cd9a14158a216b44
:100cd0005c830dc57324f364d294724d173efb48b8
:100ce000ab702455b79e2d40cf1dbe50e14e1a2249
:100cf00056a43c3670ee9fca4ad0b2fb165f21461e
:100d0000723b8deaf1b254ca35ab6bbf36769a812d
:100d10008cc0779ee643f01ffaf062d095aa665029
:100d2000a1d9e75a43632bef63d7da5744d52b1089
:100d30000afacf3136ec38d9903d4e9e0840c62b8a
:100d40006a16937213843720e754e5434155b94c32
:100d5000a24a79d74648aae10052e268e5519d8d42
:100d6000bf9419b4477edf3f97260ee166f393a741
:100d7000e97ccd2b814761957e213067a727af2283
:100d800057c823564c4c6da68ba977c4eebe6e8512
:100d9000392d497cd46f5ac987ecee08ce1a2288c7
:100da000aefc8041117e11201f8be9b31cde634035
:100db000b0d28cd0b2dc76c2d74e76ebdd9b8053be
:100dc000044c22120c38deeef5cfcea83589ed2585
:100dd0002eb35cdc0f397a3a7331c5e65a2cb60a69
:100de0005cab211c3331cbc4f0ca37d2810ded741a
:100df00059e9a10c67ca0f5fa0d67d00d0641927fe
:100e00007ddeb86303b7b3c93927d8934dcba76448
:100e10009b666881b764c3d4e8d3e476ceed5c1af0
:100e2000f37d44a27ba8579a3de50883ea37c31cab
:100e300021ebe10e817107ad1b0ee4b9e8879b47fa
:100e40000ef7484720785847ab55c26baedb4dba1a
:100e5000dd11623acbef2f774ac5096db304550314
:100e6000e08c6c72fa2f3f54791fa84af053b650a9
:100e7000844364411f6f762dcc88876ccc4b6a9b72
:100e800042527af9946a76b9de3bfb530f50d2e1b5
:100e900090c082138b17f9443c3a32c1d257224d8d
:100ea000cf326166ff574ce258faa5ec6b97d869d0
:100eb0003d9b7e52a2a2b8a0781585ad6637274d1e
:100ec000e6ea33f6cebbf5b0a7fd30b06a0166d2d4
:100ed0008ebc3c58785d999ca3a59da5300e86c11b
:100ee000aa0b279b1aee8976cf3acd6e737a7cffd8
:100ef00049dfc52fa82b660622ca3b51dc13b3c4b9
:100f000004fb98fc7edb01fd18fc4f28f4057dc531
:100f1000f5924597507fca20a1b9c78f178f826776
:100f20009ff205701b023e8010e12d155fb432ed7b
:100f3000e1380f03126658a10ef9486d96e430ab04
:100f4000e9fe1006937703b086db859f27b1c73390
:100f50001f0a959b147c85b19b676d320e82598860
:100f60001800808011e3f7b090321565c63acc497d
:100f70008412713b00f3abf0bf3489563bf100e8bb
:100f800021af3f523e80a41a857e4139b99e36d5a5
:100f9000a93160730392056f34e48f85ddcc8bac8f
:100fa000c1925ea74c1e7bf802af102382445d6e97
:100fb000ec184385d0b2b5b5f94f1ba0b5c1c4a696
:100fc00077070d5dee23cfcbe8072f5ca4a2fda32e
:100fd0006e501d6a9d40c2bb50a169bc8b94da9ec5
:100fe0008741a4045c84d6885a1cee54a84736f383
:100ff000153418cd24c013f0c05b5c202a1c5f4e52
:10100000f7439ee253cfad96c2d83fad1dd48cd6e8
:101010008af3800da245763614527a4a60424965b9
:1010200094e89af2112251d1cc7bbb3d92fce8b2fc
:101030003a91c73fda7c9de259adebeb0207f286ad
:10104000eddc59e05c32a88a69969d0f9d8996e790
:1010500058e5812a11a01cc0e2e97ee7e57c194a27
:1010600055a2c30e7b487684cc0fc662d75846c4bf
:10107000d999664912856d0d45d6a555e4c9df3a63
:10108000e48ee3923a3d69f86f21b8a8dd5a0c8fdf
:10109000752f54cd2b8fed7a5e987485e029ccd5d1
:1010a00075cae736e9830f910d5a9b884f9361808b
:1010b000abf94b972dbade304aa9a7f4baeac8902b
:1010c000a85321765c1ddb70a89d3cddd21d21c696
:1010d000bc1d6f426f9263c66cd49a59596f23d16d
:1010e000e1fa0a85eaa4242a83200ab411238b801a
:1010f000ae990a17ca39884c6b3a509caa2f8ef3c6
:1011000046663b48714226c5286d1952b7e845c569
:10111000493b89169c663843314e6dd999b52045b7
:10112000c30e735950b801be6263202b75bf569d24
:101130001ca57bf4c86245a2ecda3d621ca0530af0
:10114000084195056a59b60543347bec01122b051d
:1011500078519617b30b64d30ff9acba27a2067a6d
:101160008820a74e290e2eff1e662a71135e93ef6c
:101170007288b29b48d32fb4501d4c9ab78379bf65
:101180007ba0d4e9775233838cd4d0cf6933c43f6a
:10119000e46bcd50f4bf2396aa0953efcb1d55f84d
:1011a000db8b6c41c53576de69acb64cc33655cfaa
:1011b0006bed06baa96aa1415cd59ada6560a23adc
:1011c0006a7de072075c88cfd770c761e620426c09
:1011d00069d5a30fdd02eeeee7eea0ae8c4dd08a0e
:1011e000a9e9c84fb4fde28b39f792bf9cbeecd69b
:1011f00003be0c3c8b47334a121586f54cfcafe41a
:10120000e013de5cc9e5deb9386b4c47b1f117c4b9
:101210002318cee02f917e79e85e126cb398783770
:101220001c1600d4c673bc76c14acc10f7adebddfa
:1012300076269a4fcdc9bf11b730ad02d45fc366d1
:101240002bdd32a4ae9b9e5304678e6441fcf5bf38
:101250006eff4491ea6ccd1b124966dcc6a58f482f
:10126000a12b9b6e0ae68d5274e8b2c36afa24fc85
:10127000408fc560908d6016cfb9ed54a5d03ea8c3
:10128000d5958487e66f74eccc48fbdf4ed9cd173b
:10129000e5963a2d4dd215f309e499f58e5a974506
:1012a000e3855df9d1e5210e0754d19dcedca88cf4
:1012b0001ca5e41b33736f191d826480a6d4c3d3ad
:1012c000aa37b981df8e4717662f3f1acf5dd1c588
:1012d00065262702d840d162afa0eaea13e051f9af
:1012e000cebd4e91a9407fdb6d50f6a43ac8c8250b
:1012f00006538c6d569a851ba59e6f5c0034335146
:10130000b7fcf64f4a6743a3e4814abcfd9f7301d3
:10131000083bc09c4b77b9082a31d7319c9bc06be6
:101320008faeb2956303f32ad9df311b077718a17b
:101330003ac29483d8607d5eab60acfb1af5b0c94d
:101340004660a2ef17a9d1a19cde48a94ff76444db
:101350002b9ffbc9a574c7c7dc891c7eb13324e36e
:101360008f730f9f0f8005acc044ce87ccde681909
:10137000335e0fc9da647062b35bf9b39c5e9d257e
:10138000e31d629b76439a63202ca7067cfb97465d
:101390006a5d0d94277735c06adbb9c6198f01ecf9
:1013a0007d672b8dfc437f51d6025bad6035cae56e
:1013b000aed156edbc85b7e77f6174186df79a8d95
:1013c0005b2f1cd3d5638978448b15377d823d0113
:1013d0009fc16d4b4ffd7d52b699e93eded6174e4b
:1013e00042250c7dba1c6c4b0edba693dcf1909d64
:1013f000a507fcda1ce1eeef15857a00b685896a4f
:10140000b9cff551e579c6b21c5f80e28aa3c8adb9
:10141000e854d07adfc7581fe6772c5a456e68101b
:101420000b87f7ca181a15099bd3bd7c97cb4c1ba9
:10143000562ad9bedad8edbab71aaa7ede108d6563
:10144000487a54139632bd21fb4a16ea19b4e9c30f
:101450009fe12befd5d2c1085c6840cfd7fe367d27
:1014600044a87311278b043df22beded29b9cf77fa
:101470003ba401061708cec8eab2e0e78dde066697
:1014800095e8de56177f161677304476e34b93fccb
:101490006173b6b5715ef12dbd9d21925d6d031d29
:1014a00098e3452f36fe02d8c667c5ab69f12c0b11
:1014b0001021ca5e334febdc71213bd1aa7797969e
:1014c0006b167997d98cbc236132b9e9e041f650ab
:1014d0000956e41933e962efeb8a0dd8dce191b8e3
:1014e000f3d27241d6421a0a0c4911bc70eab36eab
:1014f000d18bcbb3cccddef5517818105ea0225f36
:10150000d63e4a928acad716ceb561e847ab86f96d
:10151000b3126daadb32cdef0ce183169ec1e05809
:10152000815141a3d5669444f6d4e063965bf77a83
:10153000ba0ed931c3e18054cc0c16b91062c76819
:1015400022dab8431ae7d303125a6b5890e1f36ecc
:10155000ba75453269372d0d829640ff2ab534455c
:10156000ae7a37f343b8fb36f84c8025713aca4758
:10157000471309473728ec79666e11216801ea9b09
:10158000dba668e8bbd25838c104445e7378306982
:10159000bb87a3bf1c38ba6bf2da418a48a20e0897
:1015a00025a71a0d71c719d3c8327ec8dac03d2edf
:1015b0003345b29f88827a27e47229dc4d062b20be
:1015c000cb9c40fedab95147add79a5ee8496de24f
:1015d0009194fc9e73b3f0683f21c5eaffaf2f6979
:1015e000d274f00ded62f7495749a84fe861a2c8df
:1015f0007a906927570ec55d4929b9bee8366c60f7
:1016000000f76641280ce600ec345bfe26691e13e9
:101610005827065b306787a78c1e4a9597449972b6
:10162000e1bcff518997df0ada950b00f3d58aed0b
:10163000581d040c822aa65cd8e861dea099d0036c
:10164000c4313fad94788375d0beb521a52ff37317
:101650006b0ab8c3515379073fc38c3f99078f6b0f
:10166000be98cc7652b65ac7c457f7609413c8b721
:10167000485999bb297538a51640fd8f1d76b8f4d9
:10168000a40671814fedd0f7ee5915ee1d33debd86
:10169000674845e317b500a9fa438addcbdf91dd42
:1016a00014641c579a4d3370ca13f732a1526d7ee1
:1016b00007ed7ddfadced3f9c704ad674652c559fe
:1016c0006b70e238c899b814192729c8854a12e7ff
:1016d000282d2508000c96eea01082a336f2629009
:1016e000cfbbf713f02b7437df8bda7d3207cbda01
:1016f00090c44767ac531358ed48cd3a44f6da9c92
:1017000025aab78eafec63a0658bdf54168bff2c38
:10171000c8410dbece17f57757def10721a8038e1d
:101720001b77a105245e658c37c3ae84a0eb74a53e
:101730001e09cb7f0763cf03cd5dfa1c7e67186758
:101740001e2f5782f4943daa26276477464f5804eb
:10175000a451f3d27ed5162582a095bd14a6b61f3e
:1017600063b3a0ca4536911f46fcc1cc82f33af858
:101770002e272093de9e237bebd714639cece0a006
:10178000e1b96750c57fee83efde2756cf2a0e27db
:1017900057680d5153843318c3876cbbd6d4fdcb27
:1017a00054caba3fa441c2e2bebba01baf572d2b07
:1017b0007bc89b508fe268810a8838a4860dd67258
:1017c0003b44cd7494dd60bc94d4d555a7f4538fbd
:1017d000bdcfd087caa4c6b00007b4337159995d94
:1017e000d957f681cf4d010595c01874408da1d60b
:1017f00002d7d3a3bc4c37152e83c3b2628fd94511
:101800003609afab101cbe25296a5c1a06c3997451
:10181000f311f202a4f288905cd2ea9d2a9b8ddb40
:101820001e3497ec976b98f9fe10391d8c4c26d31b
:10183000fd809cb9433e6b789a1c53a49a7b0dc2e1
:10184000208472f228ec71d00244ea8965ef924f4d
:1018500053fb688ee06e74973bdccbab8a411990ea
:101860008f7c251e0ce7106e6cec4f9b2b8a8e3afa
:10187000e92c0efe45541d2bd4e3c6ccd515d3d18f
:10188000826fbc860d39220cb344ecc67a0e2fd978
:1018900079956a38bf56c3e73f5657545a32c10448
:1018a000d68965f37c52345693d9e8b2f47fec6460
:1018b00081877c20216ea7ef9dad39c2fbe6cd9cd0
:1018c0002ac673e32e35bb6c0e8d0f373ef7a20a86
:1018d000422b6b4dc02aefdf4fb5cacb9f9445ff1b
:1018e000e1f75c88797a0ee26897d26600a191eb05
:1018f000c17b7e0a76aba3c4fa8c0b5833b3db8a68
:1019000023c3bcc63b4c67bf29824381e8c05d1b33
:10191000c8472358a2a7b1218ba9a285a3cfa78b23
:10192000dba15139d26de6811e2b1bfda7a70fa5a8
:10193000e533e9eb2669eaec30d3d9a4e584214507
:10194000b9e0fe2c232f8e1756c5b587f0c112863d
:1019500068b6862866cd038e5a279e38ed8829f012
:1019600030a0caa3967a47e528d610fc7f8837ad09
:10197000681ad32d4e4796e6c11582fbb8a000b673
:1019800077d8de5216cbdbc42a3ad16f0e8fb20164
:10199000be80cbc94cdb20465e61bad845a74db7a7
:1019a0008b518ba41531faff3a1d4027617a1b5bde
:1019b00007da917f50230174712421f1968d1a0565
:1019c0002aa742b5855038567802479e3a036f8859
:1019d000a5f16888d24e80aa7bca3599b253d5a8a2
:1019e000d74d9b57df5f0afe48c0778264f50d48ec
:1019f000bd5fb9cdcb1dc5974413165ba511509b98
:101a0000dc8750101f2ccd9f548204b8ab32bb51e1
:101a1000389311f0b9e7de5bd5148cf17df2c1cdbe
:101a2000426f401ac415c05587c4c554e0ae9f4ddf
:101a3000c5d221449f94bb8e7d35ff4e4d34c420ca
:101a4000daf26d62d30e06b0115b35a1d97347d7b8
:101a5000d532bed001a3333ad0327d942c2b556db4
:101a600037d2ff89d39fa6b3696b751f6e9da28184
:101a70009c9fdf50ea26fedca21cb81e363dd87fb4
:101a8000b0a43fe6d1e48bd8457049807c5e06d196
:101a900016d8a234e9c2b9660f57067788e5121343
:101aa00060d19e815d8e850aa23717aae4f9293f8d
:101ab000fe71489f0fb1e640749c606147b22ede14
:101ac0002897ac198ade46aac1e4edb88bc829393b
:101ad000d7d03668f1c1ea4276f664cf9946b98626
:101ae000ab07221ff0af678a26ec78f95a38851fba
:101af000e532f31caa550ebbf9c654eba959a7a7aa
:101b00005006dab9ac6b62f49a1a0eef3fc921465f
:101b100034a52dfad961806d29c11610a6b64cd016
:101b2000434ed2c05d1296a4298ca650291047f9c5
:101b30008f0db4f59e70508f73ef33d1c33a658427
:101b4000736c2ec1283847ca24b5dc080eb7a173c0
:101b500088217eb6a09f74c98bacd9f037da0e39d4
:101b600093c13400b4059c091f5aee35e87a41e66a
:101b7000756da29709a1c53b67a8d9673d9cca5b53
:101b80001c834e702d35a07af296c229b2299b771c
:101b9000704f5fa887bb007741e8aa62149b7f4a19
:101ba00048bb0cbb441843a9bbd8df6c6eaa864067
:101bb00056fc13ae4bc7c68298c56642fe057857e1
:101bc000174620402c915696d9e270b721f6404c2a
:101bd000c77a451f0c339dd62feac89c441d62cba3
:101be0004dd661109d1893b6f1ca45f9d419679e78
:101bf0002ba59c270401ef620b5735382f3b50e093
:101c000070f0caf0d3b994efebfbd2569435012aa9
:101c1000a92de6a5f1c607887762b1130fc9b8c62a
:101c2000cdee795a8e15d89ff5322f23717d76da55
:101c30003194132e14ad171e02b3e65d3746749f20
:101c400073fcb17c135ec2957e8317eb813c918a55
:101c5000723137093473356e7e45217afe45c38271
:101c6000361cd937285d9a163a53eb6cddcd840cbf
:101c7000e3328d319a6a5a36016a5505be6d467c4b
:101c8000ac247c201b6d8bda235dad9aa1a2e225ea
:101c9000bd937057157763a8e7c517c8d778058a2d
:101ca00031bd4782bb7fa40c75af069bef3fa38d70
:101cb000fe2a61ddf716116acd4fa2c5ac3668a0c9
:101cc000e6640f5a5b16d94db0ac40caec3e24f323
:101cd000679d05db14540a979655d130a3893fa51b
:101ce000ac6ac95ad54a00b1990a4db4c14a25f720
:101cf0007d68241dc9d1d6bc697628732767bb755a
:101d00002cf590e684c7d4bf38d4c01d9926cb2dbe
:101d10008adaab22f2c6e3dbafa7cc28a9dd74ddfb
:101d2000d2fea41a47cdf675da66d0fba8a59c2092
:101d30009c16ac1ff1fa826c18308722990962a2b6
:101d4000cc5367c18330e8430f75597a21b2874c71
:101d500083145afaaccce85796aec664711de47a87
:101d60000e955f5f2056110bab06dbf63d47da237d
:101d7000d69f0f4f8e2e2ffa5f119c28a960bd10a1
:101d8000503837288a3dbd27c87479043a774a0904
:101d9000ed56466f84a65329ee9dbdd9c22e13057c
:101da0000d88be06b1751a62c16dfc695867ef589f
:101db000e7ada25b004e372901eb84193ff56fe9cf
:101dc00084a0e79709203dfd37f3cf21dc4e465d27
:101dd000a5ebe6cdf9d29eb49be7efbca638c14691
:101de000b972c82c89f71cab0e5d0159107a2f58b7
:101df000cc2bfb2fe87634f803d19eca828e5995fe
:101e000074c59dcbae45929570554775404cee7f9d
:101e1000c55deea1cb108397c23ed88162a1f0468a
:101e2000402fc32e77eb6057c8d9f80bbe392afb79
:101e3000bf44f0f72408ffa8a7168750da319ebdeb
:101e40006c21bec1695d2701c73c10e5ddc9f1ea1f
:101e5000ab7856b9f95cfbb4c59638dd8010e24f1b
:101e60000cda34a78ca16f1761242f02f899b35ba9
:101e70003d639721d4a0b2b9714d1d00ef259e4955
:101e8000f76ff0b66b55a491cf8c97966b5a44556b
:101e9000f0465220c3f8402b48200cc6c66c19e906
:101ea000c9cbe17617a714db8ec1320597d1dbd001
:101eb00001334659591ea7ee26487e6ea8f2fc62f1
:101ec000e2ab1926235df3d65d668bece1d716b93c
:101ed00072125824aa60cc5d2f51916e3cdb57dc06
:101ee00064a0d0b7a8cc58d54172d118b359f4f238
:101ef000089e918c51a07846c91a076f2e5e9a727f
:101f0000370f5fce41e33ea0832fd88d7857da504c
:101f10004c661e526c5459eb9fd9454d2bc59c32d3
:101f2000083246c60f1f8574af3a1880a2e7909b0f
:101f30008cce50e79d86ff029e165618e86f9820bb
:101f4000441528acb595f0019687ad5ca731419258
:101f5000d90e9b750ad3e0b5f9ade6151ad02c332e
:101f6000209bca415bee256b4c5c56c1fe7180e440
:101f7000093097d75d6e54a328cf49be7e6d5a5560
:101f8000937918fbae64b1492a54778025fa3e371d
:101f9000b614029cc31b9adde4ff73bdd1e28867cf
:101fa00058382003dcc801a8cc5b18a09e2fd6248b
:101fb0003c6dbd07f036d3ea2b17fef4d7de803b2d
:101fc000f03516389b7d6b0912b6e45bec8a033959
:101fd000bec2cc1117ac03c3414227785723719876
:101fe0009da2502b237c245e21f92c229897e4f6a5
:101ff00020705766f5fe14d7ac01d2911c88ed3adb
:10200000678448212e4f48116211e39531f8ffd0c3
:102010000ca5ac64c643d307362882bcf5f9e9cfda
:1020200019b59e14fe18d7fd803aa08b46603c304f
:10203000f1643b1f4d25f2abeddf63a9b474c1fb26
:1020400043e113b1568ab3726d079f106d9ae7751d
:10205000fe86995fd0e0058c25a4413d310b3354b9
:10206000398a905b7deca3365d5fc1613f81b0ed45
:102070002ab47ea0184886e773468f9047e66066cc
:1020800012061e26411b537ec87c88f25907abe01e
:102090002e6fc81174c2d170b2e962f0d540cfafd3
:1020a000a97eecddf18653f96bec1d685b30508640
:1020b000880b7795b547294c010674dcbd676aa487
:1020c0009dee4dfd613115c546914c9feb167d0b84
:1020d00078adb0c43167b315c26a2309e6be80abe0
:1020e0005329b8b7e9b5f0779ea383a5b1e4709200
:1020f0000552bcebc44177da9b3470613cbdc21e13
:10210000f2d4c7f1653c2017fbabd7bd5bddce2e0b
:10211000f8c90608c98d631c77d900feaeed474e9d
:10212000646939463587c4212a87ff5d9955a0ea3d
:10213000dfb621cf249448d285221f332fee887e2c
:102140005b33f1013ceadf853b6b573021b452c36e
:102150000a8fc0a73a34db66362ab984b47366e3c3
:102160004856f625e44c59a883dce014ab78b3a8b4
:1021700090a0bdadf6dfb6b6426260a83a4220aa92
:1021800065c671681729fc6199b43b1cf531f9806b
:10219000490913afc59b5513a38e4b8ec0365ef213
:1021a000ab4cb333469178fc5c23b28fbf84ba2426
:1021b000d4bce53299011b4597c85255483f2bcdf9
:1021c000db862ea46429603aeaa931e7cf2af461bc
:1021d0009182766de8404b84a07af352d95ef34346
:1021e00077e5788ceb272c4fa91f45d3edf107f746
:1021f000a7f42f4cad1910808665500d7fab894f29
:10220000c8af4c71d55836e240ad2535e6b8b79c1d
:10221000ff849e6d64e2775a539e2f44485124e018
:10222000dafd898ca31bbd119dd3a6258b742cf9d7
:1022300045747226118470a8548efae6478f5ed8d2
:102240007abc31cc5865e66af06345ecb22ff2ab4c
:10225000eddb807d397fd2751eefbd1993b6351049
:102260003dae6cd17dbdb7f2ae8322093305fa4491
:102270002aa4c22de6e3553f85d42c35482f0b52b6
:102280007b6883f11e3f1b218ead002feb28984801
:10229000f79053a8a65796f7a59f9cc78374a65e90
:1022a0004f53e737ca9be1e48db04744bbdb833033
:1022b0001132750f8b141704dc0a058e691431e690
:1022c00098ad295e9514be99edae03638878d969ff
:1022d000f9f08d3b2be83d3fcd21078120b23a91ab
:1022e000f98600da18834717301de3db3b6c1a557b
:1022f000f60622b8a03551f85e43e3c7d304b3fb1a
:10230000dbc547cf6f54f9a321c83c2ec2372949fa
:102310001084e2c588f180f0b9277ebdb1d5f2b353
:102320006823fc18388533fccace04130c6f4f8d1c
:10233000154d9e5505a5dc5d4dd363f3ed05b23b10
:10234000912c43419aac36507da0d8740fbc385fb5
:1023500096184a10bc705ae9cca4be2ebe86110b4a
:102360000843628d3af02c43ce04f870c5daf4f0dd
:10237000e970fe52d903d3b22d4b63685f5f908f33
:10238000469dc4f1460c1fef96164659299cf866e7
:1023900027b6f92a08a5044baacbc5cb0fab172447
:1023a0008443f7166d51ffdef1434cb73de51cd871
:1023b0002f1b995c7c2f8eb9c37e00ba1198ef1f3a
:1023c000c412ae5be3a39d123f4f334306af9c5450
:1023d000a0a8655feb0ef777380fd1c8ab69c6c50b
:1023e000c9bcc0d06179b3fe254ecded8d0618dc99
:1023f000e13804608e45a873117f99be2977b053e8
:1024000019c6283c22dfdb8a8cac8dd7df0c9464a4
:102410001c7a443e246aee0e99225e99db2a21f84a
:1024200001890418e6759412a0268b570cf479d60e
:102430003df2158befa6fb1f5da1cb891102f5d6ee
:1024400090339791f16f4167d1d081f82a09930eab
:10245000f6f78c91b4b8e3f130f82cf325926905c6
:1024600099c5488a0b942accd410d17952a612de91
:10247000bdb4e24abef09f402977746f7081208f0f
:10248000b415a29780417afaa1a07ecca03d8a0b18
:10249000cb297366da360e3fa2c237cb52891f743e
:1024a0003ccc53032066401d758d30183752f44dd7
:1024b0001d28c0485b02f09539d3b1062e7ad2a709
:1024c00051662dcb3f856fd4d03c31b8397fab53ab
:1024d000765a6e091763ea5bd2f5be556a35060f68
:1024e000d63629a0b5b8df3478617339d27071bca3
:1024f0005a3a467467fa862091c8e12272b3ee8890
:1025000073615fe8deaa4ac6730788602de6681f1c
:102510001316330829fe31e5e3413f08b4fe20dffe
:1025200093e010bd9a9a51840f8ea8217bb51b04ad
:10253000ae1348f9c0383c2175a9a1d8a43595d966
:1025400066819eec4d5d75e0dca6b0a9f2c773e82c
:10255000fd28b82f1106dcbd3b9b7696b88aad2cc2
:10256000dfe48ff8df5a1fbcaf561f54ca19c33db2
:10257000961fdd45865a2b186908cf7c6c44298349
:10258000b6808e14bb8e9a739ff918b741bbbd6796
:10259000d19a338b0db925047b3562f53ebf307e71
:1025a000659d6b2cd38814ce0b3d639897d37bbf6e
:1025b000cd095a04193eadc830b989a3b1694cb0f0
:1025c0002d5917dd996ba20f91256df11298789412
:1025d0006ab618699f97861c8982415a4dc56b9fc0
:1025e00011a6a97805f13aea170644f0f95896259c
:1025f0004fbb56241a045b2fcece2c239c6adfc817
:10260000d9475d029564b787c58b9cf99c7416a861
:10261000e4081f55865db9a48834903a2e035f986c
:1026200010d8903747a5d98107b3cea24961a446f7
:102630005860a5cf670a1090869a5610944e05737d
:1026400004c5c6829f2743ea8ecfd4b557a7491d3c
:102650009b5b3d1cc10bb77edb3e0d49671e4eb137
:10266000cb50a606a6f27d444f8750321de3773c3f
:1026700063635f7520f0e56bdeafe6be415a1e9bdb
:102680003b8ef998e8a2f08981d3834bfac702aa5e
:102690002ab8a7ca91dfbaca27d3b67bc1feba72dd
:1026a000f068afc27567ed23a20456664f16225f2d
:1026b0002d6ed7c0a693358097e1f7c28b17cd69f1
:1026c0004a9bdac2df05a7f471bb561d7faa734887
:1026d0006d6cd4ae75593be94f66c80744c964a513
:1026e0006abab28841d33550f4eeb041f470f6477f
:1026f000b16ca59f971297d1b642eaf2994bf34479
:102700003b2991bb34be92fe72e83ad21b680e316f
:10271000800079532c36f67c77a9c26037e74f5397
:102720006521f5b5da459e3a79476b0966a884ceee
:102730002a899e3dd4cde89e80245a61d3fcb2d62e
:102740005ab18182d77c1cb5d8fd5e4e485884dcd6
:10275000bf3f8b86b776e2630290613b22febbc42b
:102760004db9fce5520bb293a451d4423cb49f0c3a
:10277000152ed8087d623f68761c2765e1726c07cc
:1027800035ee5252f72eec6c36de30b6bd0fc80473
:10279000c635415355583bc0954ca28ccdf42c8086
:1027a000cddb8ff5f6b43a4c2a9179b14dcd585b1b
:1027b0002e07a8acf1b0f7f05efa6d92aa33c30110
:1027c00095dce8a90402eeb360ad5c6e71650b9f09
:1027d0006f2b1009865979f21352c48a3ff1625166
:1027e000d123b302570f4095fec8295cb26701524e
:1027f0006ffea416cfd5aa363bd38abd5706992cb7
:1028000088b46a43ad674b5a6bccd21c9c71bfe84d
:10281000d7adaf320a3a579ca05244a8c15c5f4082
:10282000856bad68462b0fde54f9f086c23a2ccb8f
:10283000153da272f931327b51f81dfb4ff10e307c
:1028400058f33e1de40d6e72a9dfbea4b7899557fb
:102850005a86129de1f8cf9da041e19cd9da65949a
:1028600055ce03c4d0562fda9f661cb4153daadea0
:102870009c31b82f8c62a74023fd02a13a3c86f719
:1028800092510874d7e1fe4daec98e2a78457fa4d7
:1028900094bf705649d31916b65197595053f6d86c
:1028a000eca77cf4471f6b7893943cac83a68de433
:1028b000bf833bf7ea46654676b55843ff6da1aa4c
:1028c00001cbb0c4f613e77a4fabf114d87ab0c994
:1028d00060a43ea9c449b068c6f4a4152eeed4d3b2
:1028e00036901c143a55cbe925441d7123ed28760a
:1028f0007a1ec2b8b2fd048d4c317db6c74b41b0d3
:10290000b19b5acaf01152cb9fe9d3060e3f99fff3
:10291000d9c0322411184e34f4de8744ba10ff8f28
:102920005f652a8078069b9e8879cc494dc70b6ce1
:10293000092e21a0c3e55f56ebc50e0ff9dd89b363
:10294000ee3c6d83b789a951f12663e593ecebbdad
:102950005cde43932f41ec5ba302fd9c7c62bb5386
:10296000d2402bd5128264482f7698b8992c09e072
:10297000e81c6f193e9d8e22d404e8a33d68d99bc4
:1029800043688d2b786c965bda440ed61d1798bc85
:102990008507a4025f01c4fd789104103cca89aa8e
:1029a0003c7ce4f05857efd7cebd0e84df53322a7b
:1029b000d29302d28204edb2cec02b067b75d492a4
:1029c0007c1aa241a5e7027c2d66833da597d3f62c
:1029d0002f88cdc01fd6507b56ffdad7016e2a5bf9
:1029e00088b35deed854467d5a12fcb036b1dae3b6
:1029f000c37f6fb72f391506da0d320cdaca5c00c7
:102a0000a68dd07fec691783feeeaec062820ca467
:102a100076ea73573081497661fefb6314b5a07086
:102a2000e2c1da2c6387b4a905787082f7ff92e3dc
:102a3000f60a8bf4259ade5f3d3c9dccc26e918deb
:102a40000b3c7ee33fa13f81a081be43cc30f63ded
:102a5000b5f88c969200aacefd82276bfb472e30ec
:102a6000b5bfe2460840c10d4430b77fb8322b43b2
:102a7000e89f6ef783c6643f7ae04999dba7d723c6
:102a800038e151aacb7e24c7a8ff20ea9a37837b7e
:102a900089bd4d888491aca4cdbc5ae380095426ed
:102aa000ae093919180d379acabd606b5382b75dec
:102ab00055e86c6da99b006556cd54090cfcceeb16
:102ac000f8772e50022fafe6ea8d821bc66de357d2
:102ad000cd852d7c86b3c85ab520d300a822d41941
:102ae000b83ae6c221bc21808ce3374add6588c84c
:102af00037d01b4137394cd2d3151bf07e33594c9c
:102b000057393c9392210aaf788cd37a86eb8908a7
:102b10009dd8e1fc5825b98fda611036bdfab112a3
:102b2000ff2d2f9df55ec830bca54c62b092305e83
:102b3000cc8251a10cff21c7370b3c62985598f00d
:102b4000a0a2e16e6c059f32a7a03eec51052709bb
:102b500055845fd7f9e679259d71cd3a46372c5bd0
:102b6000eefb9948a13fb65ace44ea38630080385c
:102b70008e6923f9498b99c6044295b502a7efbf28
:102b8000606cc21fc0c817c00aab3496e154ae11c6
:102b90009091dc18aa34403ca48309010bc0c77b88
:102ba0003200ea9e77f0b4f07743a18fcde58aad8d
:102bb000392fe8f74ebb0f8efe8c437ea4b0fee3a8
:102bc0006393c523fc9a5deb76d060dd2cad501984
:102bd0002a4bce0dea8e8a35d30902c013bb433d82
:102be000b6d728be063fcc23ab673e6e07b8a157c9
:102bf000c9c03687b9af1b2029fca690a537a8c449
:102c0000b3500f35d1e99a81fe72b1656b28805bb4
:102c10003f3dec4378b30fb14cb735eba78fa3a77b
:102c2000a65a98031e3a48629cb0cf186831550fd7
:102c30007a46e1d56bc597bec9e459026d420e0aca
:102c40009d2007542f643895f5335512141bed4f12
:102c50002b312a8555a2c990748060384de3280431
:102c60006da4c10ace30b25fbe62a113884579ed72
:102c7000c82b004f839c9de762d93b26a419929fe5
:102c8000adbb51bb46fae177f0f7b90be11d8bae56
:102c90008933bfe2c199f2f4ee95809acf9f53db5e
:102ca000b80f67b066b1d40ac60043223f2b1d4a55
:102cb0006e1be9a16113885db7ac6a943142d5ab54
:102cc000ad1ed5e884d97eb8c2e08bb3c7068b6f42
:102cd000368c21a53a17043d9e6ad54732e7e7f6c0
:102ce00071389113778bb795a74c814ca45a95bf37
:102cf000670030b8a548f021cb6f431e3d84ba97da
:102d0000ab82b7979a7139297f50b9af01ea5fcd8d
:102d10004cc8045b81dcb90ba8b1dab4c124e55e10
:102d2000c6f7858dcfcca46f954a6ad40f8a7224da
:102d3000f106adc12f9baf73e47764da2fe6620c26
:102d4000f2645ec4786f7cd97aeb70e50422b940f6
:102d500028b15fd196e50a40705d4f9501fc8f5a0e
:102d60002169c8bd7ec3274b033b4c4018b08593f7
:102d7000869574281faae0d38455ac1dafae2ff3ff
:102d80000d7d6fae4dc3f01b48931f7889448a8137
:102d900066526815b87130fd9aa230dfba56677571
:102da0002fe8207fd5000818a6a3b3539704e0644a
:102db000e35bdc9bd354dc036fdd377ba563c2741c
:102dc000c8c8d0d0899c807fbd6c73cd882704880b
:102dd000e0f694726700a7a108f1bcc6f6582f76fa
:102de000db0e93f06350510771446f14a4fcd52f90
:102df00003407a05edb73c04aa2063c938ccfef73e
:102e00002f7fa6e7dd6855d6ebd75a8a38e2988f30
:102e1000b4289975634f28cedffe71c0fa69e76662
:102e200050b6676df7c34c8897228dc6954ef6cf86
:102e3000217123954b32db167773cf1cd0ef04271b
:102e40008e1f58f036d5d92f2777029311cafa0d65
:102e50003cb26debab5eab6583bb0b815031d38f66
:102e6000fcfb2091a2a7834e8d7e5aef04f3145ae7
:102e7000ba57efb50d65d2ba5b6757c8151436eb74
:102e800070618b27c6d4b6dd0430d80dcb7819bc61
:102e900015a046e27f6c6c86985b89febe957478bf
:102ea0008839863bb38cc04807dc6453c720422b6b
:102eb000899e3214942d7bb019cf1a63eec1366c03
:102ec000a240240afc92d57057248a5c5dc22994e2
:102ed000193b99a560f6e3920050296c4dbc8bec30
:102ee000e2089d86ba3f0ba8f8fe79f6f74cd0d9d8
:102ef0008b30829e7eaa6ffab4be76c184bde51384
:102f00002ff74b55887e60b832b6052500be9bcfa3
:102f1000660e1cc10cbdcb2ae04e683f440e1af170
:102f20003445acd087d0b0dd93e8a71fea2e513ee0
:102f3000fa38b580ad3a89d8728808f73e0f6589ae
:102f4000620163055a47c0c7ea88794e2bc420e462
:102f500057e6c40384be1e2e9c47042d2b3164d239
:102f6000ec0b38b6298d38994ddb3b503abd977242
:102f70005221e1263e7ce2cad5bdad59c4fd18b64a
:102f8000c8181457a1dca1ec137d52fa9569ab8dda
:102f900086cbc978083914bfd86efa29ca0ce9164d
:102fa000b3b30713f1056cccd95bc450bd2fb3cfbd
:102fb00050965b3d934fd493a233857dfe0ea0c403
:102fc0002c3743c7cd6cebba80b93d8f38866cc3c4
:102fd000d1099e6d16ac283f76368a6928c56b8765
:102fe00077d81f056d0756a82c2b0e238cfbf7ec0a
:102ff000ef80bab34bd1f932dbfaeb361309de1ba3
:103000009a9a16138e64c800459d2ab04930d7bedf
:10301000532bfb6e6fd5144d9c522f628dc4ed2e39
:103020006256c6e96ea2409d784c290dfed9f4a2e5
:103030006b0cd2b345622ae8c6667f9b6bf4f463df
:103040005ebaf136d375a2cfb5cc454442be9cf6ec
:1030500068fbd54812b5d1cbacb3a9c782aeb0528c
:10306000e147805b0424b45b32036094abbe7d0b0c
:103070003fa3bbaaa2a08236e40a1effae17448675
:1030800003527c6ecd8c2279652afd6fd9c8ad269e
:10309000ab846109408999d94a8ef48fcd6b367e15
:1030a000a00515387e1d7bd40dd1437c6be1a47f38
:1030b00028f1c846c06959dcfcb8e5f7c3f870ac24
:1030c000565e9c37ebd9338d29daff9507233d45b2
:1030d000f81115fb78d0e6d95b544fed7722407993
:1030e000892c899d6c5aa038fd7a9fca55bab99728
:1030f00021e0917341dd4adc0f833359d35e593ea1
:103100006117774fddcafedd133c395c03e6bc8cea
:103110006b2ca8ad7a48726a01b93757c739d14cc0
:10312000ca9723e69dea6cf836ff82c2c2fe4f2b97
:10313000659beb5e045b2f7661bea538455022e5aa
:1031400072f972b1920eed7978f6d8a7456add74fe
:1031500060a10eeb45f2366da2ae6b8145572a4158
:10316000cd5f68b1221d68c52ca539ea48a5375541
:10317000718ceb732880202b78fb19eac1142b8a01
:1031800012bf339b3b94a9b3ebe84a9d864391b5ac
:10319000727b7ec2190b6b04df68e760b963ccdf1a
:1031a0003ee11fda4b815f8f92ed5306c0e6846dde
:1031b0000160e85f0d2c79bc150ead032f3117545b
:1031c0000f639f8a468a1d1a41373ea1bb490a49af
:1031d0007e036d7f77128d8f9e59e9292a837af0bd
:1031e0000ab64c7da6e55a885c9b9c1b4137860c31
:1031f0000fff770f527ed2293e09be59b66ec7ae79
:10320000741fde3a655f72808c44a1581e92bb69c0
:103210009ec492ae1dc654ae0133f050e11e357d02
:103220005bb935f80458a31fbeb1236d244fd00af3
:10323000d8956eb0d9d406b4363feaffbed25e3f11
:103240008d7054a786c311f521b3a0a72676538ca1
:103250002f8ae11c0c26bb436de9b98a64dc3fcda3
:103260009e0561e87428c4062b713682ff253480e0
:10327000d88ee3aec0cd2ddc7f420f4befa33cf1e7
:10328000e50ea710daa3a6ca9466a9b38b8bc76c08
:10329000cc5f90d68370fa6f86ae42cc7da21a6a5c
:1032a0007ef5952847e4862e5860621eabeec3c8b3
:1032b000ca922bb76748a363e0e64bd1306804ecb1
:1032c00049f6bdefcf2e1990b8806be045a84601b6
:1032d000528e162902238d912ff5c84b3198881ee6
:1032e000e824d6d60b5bf4c6383f75464024cf7928
:1032f000aa8edcb76e6301495a3dfb66aae897992e
:10330000c362bb0317d49318a164d2d38ae3438466
:10331000dba228a149fe2c4b8b70ca7cca2489ef02
:10332000066c6b4f929b5641fe107c3f157be96dfe
:10333000b4acccdab57e1fcf3299be1fc52a18a116
:10334000a0cd0848a0438072a2b50d72d4946f6fcf
:10335000c565bc0b5800d17e00130413d0ed612766
:1033600045e7d92fe9f4384f2018c68dc2ebe5bcec
:103370006357118e5b371976eb8e70502674e7ed2c
:103380006cf149fa9a6a89ef50558ae0da50bd79b2
:10339000a9e208746d67b64a2f0f760408da9150d7
:1033a00050f2e75362f462e04fd9e0f51eaad2bfb3
:1033b0007439017fc06c48ff4aef308fb84da7a425
:1033c000f2c96497767796207e66f58393f05e9ccb
:1033d000656481280ab35510fed95c857d11da3108
:1033e000142799d88c6ade258114997c422f030f0b
:1033f000e23d309a853d466b52cd5bb0a17c3a31bf
:103400003e907fdbe2d9d3d6404d3e003889c40fd1
:103410001475ddb5eea168719021340b74f93ed3bb
:10342000bb5f351b3764f68fe9cefd6685320a85b2
:10343000e88f760c8708ecf9467d90c84908c13bb7
:103440009bc1ffc3cf3fa921eaab913a3f72a14d87
:1034500011e111e71831e84d48dcbc4a773aff80aa
:10346000b2b742b7723234cffa495a397fa8b83965
:103470000398e741e96d542bac90ab2b58379dacca
:1034800096168a8c6c98c1510f635c576243e50da8
:10349000f9b254cbc8a10fc6cb3cf2374cb9a0bf90
:1034a000a488858b8e6161d568083fb908c82084df
:1034b000ef03dae70849d9c345d9cb6fb69071acb1
:1034c000fb8b06b22a1206f984994dbb97d1c449e9
:1034d000a7331cad7e71573cfcb41406fc9ee05a29
:1034e0007e6e03b319c287d328cd78eb370a93ffda
:1034f000a6bce4e985bc13bf166c4e678ada1fa42c
:10350000d45998f2b71da1e95bae530c1634af390c
:1035100037ee1e1bfb5e794ffff69f2dce4fc35a31
:103520006a44038be462f1386c9b15146424a28214
:1035300065eddb754023dc62639ad12a3c1cc83df3
:103540006efca7490466fb30e9459a2e57c25756d0
:1035500004af4fe13c6970e137f551614a738a0667
:10356000d5230bb0ff9127b6a9b561b8280c202749
:10357000a800d4f8591f4e2bb0f7310b749ccd60c6
:10358000552ed8f440dec021c24290451212af59e8
:10359000ab80e60b83ce751249e4279538f1b7e985
:1035a0006a67df00b8ddf43e929dec9c59fa1e4537
:1035b0002aa1261e2e8ec4dcc0558d9f19e1d13460
:1035c00053eb1170dbb1d74cb9c7e3b73ffbe83a17
:1035d00007ac59e84f0e0143183661ff9fef0bca45
:1035e00015ab8696a11461001b1784c50f64ed7797
:1035f000e7bb66d4618fd67697c743bc54b2b62476
:10360000766c787886506c81e23781281594733215
:1036100034bd5c0260e6cf15c89d7a13c8d589b267
:1036200002c946d08946b86d78253478a301219423
:103630001b776b47d07f5e3878a0f0758c169dd7ce
:10364000092e720a2e69e8d29034987e0c3303baa0
:103650008e7fe628b557d969bc0d3287394871eaa3
:103660009ddca44a7ec283351d0a4d39abc78ab59d
:10367000424148e39bff77a5e97372206953e8371d
:1036800097e9a56305ebf48f58a295dcdc6f8a8b74
:10369000b0fc2d668f9d575f99b7854ebc3147fcb6
:1036a000913f66e1d3158b4abd495acd00ee3b34bc
:1036b00017c4565523ec7a7cab12e651d3f0386c24
:1036c000ec9af7007a047b480da226a77d1f389d4f
:1036d000777fa6086d39c458420fb29e56b4cbaf5f
:1036e000ca8c91b21510dbdc4ca42a39baed84a83f
:1036f00096e9288b066600bfc490abdef1b470df9c
:10370000147b8e9c3d24a6cfc3983a852559812ae7
:10371000fd92089c0ee9daf4dbc836ec513bff0c55
:10372000749f6c1915c0bb5dfe1eccc23079f8ebde
:10373000fadd96b026cbe4ae76405eda2ba6b13940
:103740005b06cf363ef8de35ce27fc5a4e7515a9fe
:103750009f0147ee73ab9216c7d4d0ec346a255d57
:10376000fb927db4e274b67c47fa8becfa8a68155a
:10377000c009b431a0bb3fca46b4dd9a290c5d62d2
:103780004cf76009ac70cfc9c131dc4aaf09e6d44f
:10379000f8d6990adbbf27dcab667c92c728bf2925
:1037a0000abf885fccbc962adabbf77cef56e77f6e
:1037b000a419d8bcd6136bd3f7c045b4d36d158408
:1037c000b4482793f7bb601e71d987bc3feb27a491
:1037d000e55c753ec7a310a86af07815129e8e3a74
:1037e0008dc2943664656499ab23dd772855c6c2d3
:1037f000a0f8993d67f201cb8d76f5fd5091bc069e
:103800009d344a8fcf46bd03f082eb523733485088
:10381000801d9017f5160a1c282643e85b30959802
:10382000b076e797787f6a38ed354b22fc3c96b747
:10383000f2cfcce032b8dcf24b298b87087c739353
:1038400055352efc23c24e8993cf36f20d38fc53ea
:1038500026e5e06065160d1749fa9ac02c87158d8c
:10386000dff4061f195832b916358e0103032a7684
:10387000140a8613580315c8b76be3aaa3779c12e2
:1038800066077915241dbf01eea1d5c17b8f346475
:1038900073bd9a2858e353ba70a07b924b888fa0cf
:1038a000c599b7a9967f850dd7a334da15e193584a
:1038b000c2531e8238b2061092101bf90809d9ac07
:1038c0009ca511584185f7fdd31d76247711227de3
:1038d00042f235ba4dfc566681882393c15bc69b84
:1038e0004efd00547fc46d6426450bb0494c23f552
:1038f000f896291b72e349c9e22a934960f70bca7b
:1039000003481c812a69224c58a507bf39d338d6f1
:10391000ae0d66a4041ecfbca0681037d566bc8669
:10392000a6fe267aa333352f361b21c9f7fa6b285a
:10393000f2fc7d09e5f5b734e90be6ae1249541403
:10394000e76cff8dce78a9ffcfdab677392c28e85f
:1039500015da23b17c48b89c313001330f51b1ab3b
:1039600038b4afba131e651f7a69c4a9b8e43e071c
:103970002cf230b9b2886bd22c47f37fc64516754e
:10398000d3cb61b85ea13567cda2ef712fb3e36be6
:103990001063a1f0f5ba4c28d715f27d37002891b5
:1039a000b17b62f11e11c824a6b28015623faeed54
:1039b000602197d93879bd636eb1d84e6472f21325
:1039c000936026804912b015251d6211133f9b5943
:1039d0007df356acf0f303bf76882248549de30292
:1039e000fced433955dc676fafb825120d820b71c2
:1039f0008c74485417e848eab45af2f21397cc5939
:103a0000346774a13e3b45daebaffcfc1ce7c2ea2d
:103a10007714f9722bb09804323d0e09af8ce3078e
:103a200045e699f2868e8b72c77fbfe51264e86d1a
:103a3000eb1619592f33e6a54097e07f3bbbc3ee49
:103a40000059b3192fc95dc673fbeb18c2010a9761
:103a50005a917e10a7f105d66f257576ce766ae766
:103a6000f880e9b7c175c0dc63489d1207dc17fa1e
:103a7000f87220529ffaaf1696f97e4984243abc18
:103a800084f1862249aca12a50e29b88bd246319a7
:103a9000c1761c91a3f48256d07553837b40f92cd8
:103aa000c016f9655720ce9e37974c5fc520a86f8a
:103ab0007032b3efc71afffd7b53ebe5d65ad3eb59
:103ac0008b2bd43bfe13fb975789bcb205270168ab
:103ad000880d49439f388ae6399fe664bc12549f9b
:103ae0008942cf18d65ec0ea352f9bcf64a7ef6618
:103af0004d42661a47b26e5df2b9852958226fe4cd
:103b00002140c321fc6c96de9a523b3ad02055be30
:103b1000cbe0b9b25b7dd725ce55ad8fd9537a496d
:103b20007fdfb02e103ede2f921195a83b287cb887
:103b3000cdcb1100ff22d7743e7ce928728430502f
:103b400092adb8cf3566db0f6edf450598671192f1
:103b5000e5bb63acd7c062f4f38a65b85aa8af710d
:103b60000d092244130eb320c2828b6ee29a227d8d
:103b70006a39c8100e0852c4e430f438ccc678173d
:103b8000692a5983d6f0737b671349381492259eae
:103b900073a77d3c514065754b710cd407f973a137
:103ba000e019ec352f5d09ac780308e73034f20eec
:103bb000e037e2f4d4423b0ea7a7c5ed4d6fe963b1
:103bc00072b48db9513848b35712f4373b78c5db1e
:103bd00051f17cb04b7d5a08bb7ddf18e76c89a2a0
:103be000e3ab1220f4f9e904a857dc163e6b3e045f
:103bf0002baff49bf1f12b528cf4ba1c1e46659b43
:103c0000b985782e54ad8587543d34a7462f628000
:103c1000992216948434fa4e65605cf84269f27d0c
:103c2000429adb5f31f39c998682134163f898389e
:103c300087ccd4304571fad1d56a70dba6520c69b5
:103c40008b1780e0d0ff9209b038366eab0fad080d
:103c5000a80541b5fb654027ae0e4229a195f07934
:103c600068ffcc91f898ae1c86c5fced37d0d1c268
:103c700070f99720ef62c50d069cc57c8dd941b6c1
:103c800071264b0af41b1a8900e568af24ad992a06
:103c900019a63321f04f65b539b88da0cad90520d2
:103ca0000236ab939677e77d5ba424dd922bfcfb79
:103cb000a1e0941950a4e3c5e45cd696bb63a6aa20
:103cc00039acbf2931300797176779d0a7e256e0a2
:103cd000c94f6122e46fe357ead37c92c65af33ba3
:103ce000fbda7e809c5f51edf9e259188b7f697b8e
:103cf000166d60070654eefa72bd02fd57b51dae93
:103d0000eee402fb35ae8206092056756cc358629c
:103d1000d28a8148958673afe60f8c74dc7fbad265
:103d20007ec58ab5da5e37de9481a8e17a82ab1c63
:103d30000bc9d217f2d1c1eef412e6c6c9d7c66bd1
:103d4000db497a7cf143f4e42ab52c84eba74f29b4
:103d50009122885d04910f9e8f617cf994ef9e2fd4
:103d6000f91256d060c421ff9fc360bdf82d94f7af
:103d7000fb60fdb534ba7620eded6046b90f05c99c
:103d80008e95cbe894dd08840d06691fdd252deda9
:103d9000a223ae6f70d0f24489fb4818b69120d9a7
:103da000151ca7ad7d1fd941cf2c0f72dbb5346434
:103db000a3dd3a8e2aee655221228d110fe47af2ac
:103dc000d0c3dcbc8eaca8768638bcae371525a82f
:103dd000dfd666cb59c19403b84f2e044a8c019aa2
:103de000c07d8268c13d6ad6177f81033b91dffbae
:103df000fd2a1c90768b298495c3ccfcf21e074dbe
:103e0000ae0ed3b68f1efc8aaaac11d4338ba79208
:103e100066c768fd7f23b07a4111ad339645437a7a
:103e200025112e60fb2e1d2eabbec5b671782596d2
:103e300047727be6f6f19bf88b23ba1bcac2cf858b
:103e400074f115d287e270d1cb06977548e06624ed
:103e500091c1a9d2e1f43f8a86348259246528c3ee
:103e6000aff1302f3c417cf9fe2c28101361d94d65
:103e7000fb206bfdcabed52e88d435c53f173280d6
:103e8000ae26494ca5e7ac9d7d28bcb82eab531798
:103e9000fdcd5e57c0747b552be9aa6bbad233fcbb
:103ea0000b7a4eb4d3045029c44b39d4fb820c7a1c
:103eb000d5de428353d032e64faa5b8c39a4d36956
:103ec00026a953a25a5b9a7e95362c00ddc1a163c8
:103ed0008538fdd99a21de3b15a4659d61b223ef9b
:103ee00024458e0a5045a3eef2dfc5093e5310b4b7
:103ef000d29797642f474a21e4b68947df3094a8c8
:103f0000eab35a9054ae65442590d7f28c39c0413b
:103f1000458b3de431ba22dc66172e65606cfca44b
:103f2000252d368f8315bfb9bbe9d9f2368977d5f0
:103f30002c773fcc4082f8218b4d5d0a99c296e6e2
:103f400044c0c313838d750083dce973b36b632bab
:103f500098911245833d401a8335c5783fa7ff6588
:103f60007b4ecadf7cc02e3b92aec4147a1c12f585
:103f70005fe74f29a31e5466c700b6290fa13a0b6d
:103f8000c18b356818e9750340fbd0a809ed7bd8d3
:103f90001b56b309d0ea7216103226c9c64aaeb90a
:103fa000d20112d789d7ba652bb01435e142f46d2e
:103fb00028921e28bafbbab05ca3af39285224411c
:103fc0002d0d940b82ee4fdf320f3bf688963a416f
:103fd000a923957d983f322fef7f908efc7bca6a94
:103fe00015e213943c276b667ab0955884736dd6ae
:103ff000826441b42438c2014f47a9100d9d33efac
:0200000400f00a
:08000000928307b9710d2b6317
:080008006c7d1600657c12a05e
:080010005e846e2c9bfb390796
:0800180046d0803b2aa256806d
:080020006fcb117363c08db1b9
:08002800b4b356c4bb65100817
:08003000a9878efbc03347993c
:08003800e2413fc125898bbfa5
:080040003d66f46fd5f474a0d5
:0800480042e690ad1af7b56c19
:08005000964435e6d91d827fbc
:080058007717b486d7659244c6
:080060004dd7950f0ff1a9f532
:080068004bfba4fb1c0eaf1db5
:0800700019661b69af8b62f8f1
:080078009a2251a2185d8d9a35
:08008000b972ff6add92d5e7b9
:08008800472d16215d9c145f59
:08009000ec6c1db491e345b7cf
:0800980026862a62caab014072
:0800a0005b6162478e47882373
:0800a800f30b0dc47fa65b6d94
:0800b0008cab3dac501f6de16b
:0800b8003abdfb47ce9edaa819
:0800c000d3a11026f81535c983
:0800c8004f7656c02744617217
:0800d0003c489ee643cdfe1002
:0800d800389220050c9a653beb
:0800e00084037f377293346d35
:0800e800a0a56023fea36590b2
:0800f00000418aaf430d0152eb
:0800f800c6259b856e145552cc
:020000040020da
:08000000112233445566778894
:020000040030ca
:0e00000000220f0e000181000fc00fe00f4024
:00000001ff
